:020000040800F2
:10000000000002207D2C0008792A00087B2A0008C5
:100010007D2A00087F2A0008812A000800000000CD
:10002000000000000000000000000000832A00081B
:10003000852A000800000000872A0008892A000895
:10004000CD2C0008CD2C0008CD2C0008CD2C0008AC
:10005000CD2C0008CD2C0008CD2C0008CD2C00089C
:10006000CD2C0008CD2C0008CD2C0008CD2C00088C
:10007000CD2C0008CD2C0008CD2C0008CD2C00087C
:10008000CD2C0008CD2C0008CD2C0008CD2C00086C
:10009000CD2C0008CD2C0008CD2C0008CD2C00085C
:1000A000CD2C0008CD2C0008CD2C0008CD2C00084C
:1000B000CD2C0008CD2C0008CD2C0008CD2C00083C
:1000C000CD2C0008CD2C0008CD2C0008CD2C00082C
:1000D000CD2C0008CD2C0008CD2C0008CD2C00081C
:1000E000CD2C0008CD2C0008CD2C0008CD2C00080C
:1000F000CD2C0008CD2C0008CD2C0008CD2C0008FC
:10010000CD2C0008CD2C0008CD2C0008CD2C0008EB
:10011000CD2C0008CD2C0008CD2C0008CD2C0008DB
:10012000CD2C0008CD2C0008CD2C0008CD2C0008CB
:10013000CD2C0008CD2C0008CD2C0008CD2C0008BB
:10014000CD2C0008CD2C0008CD2C0008CD2C0008AB
:10015000CD2C0008CD2C0008CD2C0008CD2C00089B
:10016000CD2C0008CD2C0008CD2C0008CD2C00088B
:10017000CD2C0008CD2C0008CD2C0008000000007C
:08018000CD2C0008CD2C000875
:1001880010B5054C237833B9044B13B10448AFF3C9
:1001980000800123237010BDE40A00200000000045
:1001A800282D000808B5034B1BB103490348AFF3DA
:1001B800008008BD00000000E80A0020282D000883
:1001C800034613F8012B002AFBD1181A013870478F
:1001D80053B94AB9002908BF00281CBF4FF0FF31A6
:1001E8004FF0FF3000F074B9ADF1080C6DE904CEA2
:1001F80000F006F8DDF804E0DDE9022304B07047FA
:100208002DE9F047089D04468E46002B4DD18A42C1
:10021800944669D9B2FA82F252B101FA02F3C2F1F4
:10022800200120FA01F10CFA02FC41EA030E944085
:100238004FEA1C48210CBEFBF8F61FFA8CF708FBA6
:1002480016E341EA034306FB07F199420AD91CEB7E
:10025800030306F1FF3080F01F81994240F21C81B0
:10026800023E63445B1AA4B2B3FBF8F008FB1033F8
:1002780044EA034400FB07F7A7420AD91CEB04042D
:1002880000F1FF3380F00A81A74240F207816444FD
:10029800023840EA0640E41B00261DB1D440002382
:1002A800C5E900433146BDE8F0878B4209D9002DE6
:1002B80000F0EF800026C5E9000130463146BDE870
:1002C800F087B3FA83F6002E4AD18B4202D38242DA
:1002D80000F2F980841A61EB030301209E46002D89
:1002E800E0D0C5E9004EDDE702B9FFDEB2FA82F2DE
:1002F800002A40F09280A1EB0C014FEA1C471FFA3C
:100308008CFE0126200CB1FBF7F307FB131140EA22
:1003180001410EFB03F0884208D91CEB010103F1EF
:10032800FF3802D2884200F2CB804346091AA4B2B1
:10033800B1FBF7F007FB101144EA01440EFB00FE85
:10034800A64508D91CEB040400F1FF3102D2A645EA
:1003580000F2BB800846A4EB0E0440EA03409CE789
:10036800C6F12007B34022FA07FC4CEA030C20FA36
:1003780007F401FA06F31C43F9404FEA1C4900FA56
:1003880006F3B1FBF9F8200C1FFA8CFE09FB1811D3
:1003980040EA014108FB0EF0884202FA06F20BD946
:1003A8001CEB010108F1FF3A80F08880884240F296
:1003B8008580A8F102086144091AA4B2B1FBF9F0DA
:1003C80009FB101144EA014100FB0EFE8E4508D9D5
:1003D8001CEB010100F1FF346CD28E456AD902385A
:1003E800614440EA0840A0FB0294A1EB0E01A1423F
:1003F800C846A64656D353D05DB1B3EB080261EBAD
:100408000E0101FA07F722FA06F3F1401F43C5E986
:10041800007100263146BDE8F087C2F12003D840BC
:100428000CFA02FC21FA03F3914001434FEA1C47FE
:100438001FFA8CFEB3FBF7F007FB10360B0C43EAF0
:10044800064300FB0EF69E4204FA02F408D91CEBA0
:10045800030300F1FF382FD29E422DD9023863449E
:100468009B1B89B2B3FBF7F607FB163341EA03413E
:1004780006FB0EF38B4208D91CEB010106F1FF388D
:1004880016D28B4214D9023E6144C91A46EA004684
:1004980038E72E46284605E70646E3E61846F8E616
:1004A8004B45A9D2B9EB020864EB0C0E0138A3E75F
:1004B8004646EAE7204694E74046D1E7D0467BE740
:1004C800023B614432E7304609E76444023842E7B8
:1004D800704700BF10B504460E4B18784FF47A7376
:1004E800B3FBF0F30C4A1068B0FBF3F000F0A0F88F
:1004F80068B90F2C01D901200AE0002221464FF0EB
:10050800FF3000F05DF8034B5C60002000E0012044
:1005180010BD00BF00000020E00A002008B50B4B0A
:100528001A6842F400721A601A6842F480621A600B
:100538001A6842F480721A60032000F02FF8002035
:10054800FFF7C8FF02F078FA002008BD003C02401F
:10055800034A1168034B1B780B441360704700BFB4
:10056800000B002000000020014B1868704700BFF6
:10057800000B002038B50446FFF7F6FF0546B4F136
:10058800FF3F02D0044B1B781C44FFF7EDFF401BD4
:10059800A042FAD338BD00BF00000020074AD36844
:1005A80023F4E0631B041B0C000200F4E060034327
:1005B80043F0BF6343F40033D360704700ED00E0BD
:1005C80000B5194BDB68C3F30223C3F1070CBCF178
:1005D800040F28BF4FF0040C03F1040EBEF1060F00
:1005E80018D9033B4FF0FF3E0EFA0CFC21EA0C0130
:1005F80099400EFA03F322EA0303194300280BDBA0
:100608000901C9B200F1604000F5614080F80013AB
:100618005DF804FB0023E5E700F00F000901C9B20B
:10062800024B1954F4E700BF00ED00E014ED00E0C0
:100638000138B0F1807F0BD24FF0E0235861054AB2
:10064800F02182F823100020986107221A61704770
:100658000120704700ED00E000230F2B00F2DA8044
:10066800F0B583B03AE0072200E00022AA40324306
:100678000234694D45F82420684A14686FEA0C0270
:1006880024EA0C054E6816F4803F01D04CEA0405B4
:10069800624C2560646802EA04054E6816F4003F5F
:1006A80001D04CEA04055D4C6560A46802EA0405C3
:1006B8004E6816F4801F01D04CEA0405574CA5601B
:1006C800E46822404D6815F4001F01D04CEA04028A
:1006D800524CE26001330F2B00F29A8001229A40BB
:1006E8000C6804EA020C32EA0404F3D14C68651E73
:1006F800012D03D9112C01D0122C12D185685E006E
:100708000324B44025EA0405CC68B4402C43846033
:10071800456825EA02054C68C4F300129A402A434A
:100728004260C5684FEA430E032404FA0EF4E2431C
:1007380025EA04058C6804FA0EF42C43C4604C685E
:10074800022C01D0122C0FD1DD08083550F8257085
:1007580003F00704A6000F24B44027EA04070C6935
:10076800B4403C4340F82540046814404A6802F00D
:10077800030202FA0EF2224302604A6812F0805F16
:10078800A8D000220192264A546C44F48044546450
:10079800526C02F480420192019A9C08A51C1E4AE0
:1007A80052F8256003F0030295000F22AA4026EABA
:1007B80002061C4A90423FF458AF02F5806290420C
:1007C8001AD002F58062904218D002F580629042F9
:1007D80016D002F58062904214D002F580629042F1
:1007E80012D002F58062904210D002F580629042E9
:1007F8003FF439AF082239E7012237E7022235E70B
:10080800032233E7042231E705222FE706222DE7EA
:1008180003B0F0BD704700BF00380140003C014004
:10082800003802400000024003685A6912F4806FE1
:1008380001D1002070476FF480625A61002303637E
:10084800202280F83D2080F83E30026C42F00402FD
:10085800026480F83C30012070472DE9F0410746DA
:100868000D4690461E4624E0FFF77EFE069BC01A02
:10087800B04200D8EEB900233B63202287F83D2020
:1008880087F83E303A6C42F020023A6487F83C30F0
:1008980001201EE03B689C6925EA040C1FFA8CFCC9
:1008A800BCFA8CFC4FEA5C1CE04511D1B6F1FF3F65
:1008B800DAD1C5F30743012BECD13B685B6925EA24
:1008C800030C1FFA8CFCBCFA8CFC4FEA5C1CEBE7AF
:1008D8000020BDE8F0812DE9F04105460E46174697
:1008E80098463DE01A6842F400721A602B686FF46B
:1008F80080625A6100232B63202285F83D2085F809
:100908003E302A6C42F004022A6485F83C3001200B
:1009180034E0FFF729FEA0EB0800B84200D8FFB981
:1009280000232B63202285F83D2085F83E302A6C71
:1009380042F020022A6485F83C3001201EE02B6832
:100948009C6926EA0404A4B2003C18BF0124A4B19F
:100958002B685A6912F4806FC4D1B7F1FF3FD8D120
:10096800C6F30743012BEAD12B685C6926EA040425
:10097800A4B2003C18BF0124E9E70020BDE8F081DB
:1009880070B504460D46164623685B6913F0800F60
:100998001CD12046FFF748FFD0B9B5F1FF3FF3D08F
:1009A800FFF7E2FD801BA84201D8002DECD10023FF
:1009B8002363202284F83D2084F83E30226C42F0E4
:1009C8002002226484F83C30012000E0002070BD41
:1009D8000120FCE72DE9F04385B004460D46914619
:1009E8001F46DDF830800D9E0368196841F4807158
:1009F80019600096434600224FF00111FFF72DFFC2
:100A080060B9236805F0FE051D6133464246264954
:100A18002046FFF760FF68B1012008E023681B68E3
:100A280013F4807F02D04FF400732364032005B0D1
:100A3800BDE8F0830023039323685A6903929B69F6
:100A48000393039B324641462046FFF799FF30B98E
:100A5800012F0FD123685FFA89F61E61E7E7236C3F
:100A6800042B01D00120E2E72268136843F40073E5
:100A78001360F7E723684FEA19221A6132464146A4
:100A88002046FFF77DFF20B923685FFA89F61E61CB
:100A9800CDE7236C042B01D00120C8E72268136836
:100AA80043F400731360F7E7020001002DE9F047F3
:100AB80084B004460D46164699460C9FDDF83480EE
:100AC8000268136843F4806313600368196841F48B
:100AD80080711960CDF800803B4600224FF001116B
:100AE800FFF7BBFE70B95FFA85FA236805F0FE05CB
:100AF8001D6143463A4641492046FFF7ECFE68B17E
:100B0800012008E023681B6813F4807F02D04FF4AB
:100B180000732364032004B0BDE8F0870023039327
:100B280023685A6903929B690393039B424639469B
:100B38002046FFF725FF80B9B9F1010F18D12368C6
:100B4800F6B21E61424639462046FFF719FF68B3E0
:100B5800236C042B24D00120DDE7236C042B01D067
:100B68000120D8E72268136843F400731360F7E79D
:100B78002368320A1A61424639462046FFF700FFC9
:100B880018B92368F6B21E61DCE7236C042B01D088
:100B98000120C0E72268136843F400731360F7E785
:100BA8002268136843F400731360D4E7226813685B
:100BB80043F480731360CDF800803B4600224FF069
:100BC80001112046FFF749FE68B922684AF001037F
:100BD800136143463A4609492046FFF77CFE002840
:100BE80099D0012097E723681B6813F4807F02D00F
:100BF8004FF40073236403208DE700BF0200010057
:100C080070B504460D46164623685B6913F0040F59
:100C18001CD12046FFF708FED0B9B5F1FF3FF3D04D
:100C2800FFF7A2FC801BA84201D8002DECD10023BD
:100C38002363202284F83D2084F83E30226C42F061
:100C48002002226484F83C30012000E0002070BDBE
:100C58000120FCE770B505460C4616462B68596915
:100C680011F0400F29D1596911F0100F15D1FFF774
:100C78007BFC801BA04201D8002CEFD100232B6302
:100C8800202285F83D2085F83E302A6C42F020026B
:100C98002A6485F83C30012070BD6FF010025A615B
:100CA80000232B63202285F83D2085F83E302A6CEE
:100CB8002A6485F83C300120EEE70020ECE70000CC
:100CC800002800F0CC8070B5044690F83D30002B29
:100CD80077D0242384F83D302268136823F0010379
:100CE80013602268136843F4004313602268136892
:100CF80023F40043136000F0E3FD62685A4B9A4204
:100D080064D85A4B98428CBF00230123002B40F033
:100D1800A8805749A1FB00318B0C25686A6822F02E
:100D28003F0242EA91426A6021680A6A22F03F0261
:100D380066684D4DAE424FD8013313430B622168AC
:100D4800CA6922F44F4222F0FF026668464B9E426F
:100D58004CD8431E7600B3FBF6F3013340F6FC7023
:100D6800034278D0C3F30B031343CB6121680B68AC
:100D780023F0C003E269206A024313430B60216831
:100D88008B6823F4034323F0FF032269E0680243DE
:100D980013438B602168CB6823F0FF036269A06965
:100DA80002431343CB602268136843F001031360C6
:100DB80000202064202384F83D30206384F83E001E
:100DC80070BD80F83C3001F025FA82E7294B984243
:100DD8008CBF0023012399E74FF4967505FB03F3B5
:100DE800254DA5FB03539B090133A6E7A368BBB9AF
:100DF800451E06EB460CB5FBFCF50135C5F30B05A6
:100E0800B5FA85F56D0945BBC3B9013806EB46034C
:100E1800B0FBF3F30133C3F30B0343F40043A3E73D
:100E2800451E06EB860C0CEB8C0CB5FBFCF501356E
:100E3800C5F30B05B5FA85F56D09E4E7013806EB4E
:100E4800860303EB8303B0FBF3F30133C3F30B0314
:100E580043F4404388E7042386E7012384E701201D
:100E680070470120ACE700BFA08601007F841E0008
:100E780083DE1B43FF083D00D34D62102DE9F0438C
:100E880083B004460F46904699460C9EFFF76CFBCC
:100E9800054694F83D00C0B2202803D0022003B0D4
:100EA800BDE8F0830095192301224B492046FFF73E
:100EB800D4FC002840F0898094F83C30012B00F0E5
:100EC8008680012384F83C3023681A6812F0010FE9
:100ED80003D11A6842F001021A602268136823F4E9
:100EE80000631360212384F83D30402384F83E30AA
:100EF800002323640A9B6362BDF82C306385638DED
:100F08002385364BE362019500964B4642463946A7
:100F18002046FFF75FFD00285BD1238D002B35D0DD
:100F28002A4631462046FFF72BFD20BB626A23681C
:100F380012781A61626A531C6362218D013989B281
:100F48002185638D9BB2013B9BB2638523685869F9
:100F580010F0040FE1D00029DFD052781A61636ADB
:100F680001336362238D013B2385638D9BB2013B73
:100F78009BB26385D1E7236C042B01D001208EE757
:100F88002268136843F400731360F7E72A46314672
:100F98002046FFF735FE50B1236C042B01D0012009
:100FA8007DE72268136843F400731360F7E722684B
:100FB800136843F400731360202384F83D30002342
:100FC80084F83E3084F83C3069E7022067E7022065
:100FD80065E7012063E700BF020010000000FFFF83
:100FE8002DE9F04387B004460F4690469946109E77
:100FF800FFF7BAFA054694F83D00C0B2202804D09D
:101008000227384607B0BDE8F0830095192301226E
:1010180088492046FFF721FC002840F0438194F8D6
:101028003C30012B00F04081012384F83C302368D8
:101038001A6812F0010F03D11A6842F001021A600F
:101048002268136823F400631360222384F83D3078
:10105800402384F83E30002323640E9B6362BDF86E
:101068003C306385638D2385734BE362019500965D
:101078004B46424639462046FFF718FD07460028EA
:1010880040F01481238D5BB9029323685A69029258
:101098009A690292029A1A6842F400721A6075E01C
:1010A800012B0AD0022B1AD00023059323685A6912
:1010B80005929B690593059B68E02268136823F4F1
:1010C800806313600023039323685A6903929A6923
:1010D8000392039A1A6842F400721A6056E0226872
:1010E800136823F4806313602268136843F4006371
:1010F80013600023049323685A6904929B6904933C
:10110800049B43E02A4631462046FFF7A3FD00280A
:1011180040F0CE8023681A69636A1A70636A0133E3
:101128006362238D013B2385638D9BB2013B9BB298
:1011380063852BE000953346002240492046FFF79F
:101148008CFB002840F0B6802268136843F40073D3
:10115800136023681A69636A1A70626A531C6362AF
:10116800238D013B2385638D9BB2013B9BB2638535
:1011780023681B695370636A01336362238D013BE3
:101188002385638D9BB2013B9BB26385238D002B26
:101198007FD0032B54D8012BB4D0022BCAD0009592
:1011A8003346002225492046FFF757FB002840F028
:1011B80083802268136823F48063136023681A69A4
:1011C800636A1A70636A01336362238D013B238566
:1011D800638D9BB2013B9BB2638500953346002229
:1011E80016492046FFF739FB002867D122681368A3
:1011F80043F40073136023681A69636A1A70626A99
:10120800531C6362238D013B2385638D9BB2013B95
:101218009BB2638523681B695370636A01336362F9
:10122800238D013B2385638D9BB2013B9BB2638574
:10123800ACE700BF020010000000FFFF040001003F
:101248002A4631462046FFF705FD002838D1236895
:101258001A69636A1A70626A531C6362238D013BC0
:101268002385638D9BB2013B9BB2638523685969D3
:1012780011F0040F8AD01B695370636A01336362EB
:10128800238D013B2385638D9BB2013B9BB2638514
:101298007CE7202384F83D30002384F83E3084F82E
:1012A8003C30AEE60227ACE60227AAE60127A8E60C
:1012B8000127A6E60127A4E60127A2E60127A0E662
:1012C80001279EE6002800F0DA8170B582B0044656
:1012D800036813F0010F3BD09F4B9B6803F00C038E
:1012E800042B2CD09C4B9B6803F00C03082B21D0BB
:1012F8006368B3F5803F4FD0B3F5A02F52D0964B1B
:101308001A6822F480321A601A6822F480221A605D
:101318006368002B50D0FFF727F905468E4B1B68F2
:1013280013F4003F14D1FFF71FF9401B6428F5D9C7
:101338000320ABE1884B5B6813F4800FD8D0864B51
:101348001B6813F4003F03D06368002B00F09981F9
:10135800236813F0020F54D07F4B9B6813F00C0FD7
:101368003ED07D4B9B6803F00C03082B33D0E36819
:10137800002B68D0794B01221A60FFF7F5F8054673
:10138800754B1B6813F0020F54D1FFF7EDF8401BA3
:101398000228F5D9032079E16F4A136843F48033B2
:1013A8001360B5E76C4B1A6842F480221A601A6819
:1013B80042F480321A60ABE7FFF7D6F80546664B71
:1013C8001B6813F4003FC3D0FFF7CEF8401B642816
:1013D800F5D903205AE1604B5B6813F4800FC6D13E
:1013E8005D4B1B6813F0020F03D0E368012B40F03C
:1013F8004A81594A136823F0F803216943EAC10373
:101408001360236813F0080F42D063696BB3534B22
:101418000122C3F8802EFFF7A7F805464E4B5B6FF5
:1014280013F0020F34D1FFF79FF8401B0228F5D9BB
:1014380003202BE1484A136823F0F803216943EAA3
:10144800C1031360DDE7454B00221A60FFF78CF8F3
:101458000546414B1B6813F0020FD2D0FFF784F802
:10146800401B0228F5D9032010E13C4B0022C3F8A9
:10147800802EFFF779F80546374B5B6F13F0020FA4
:1014880006D0FFF771F8401B0228F5D90320FDE0CC
:10149800236813F0040F77D02F4B1B6C13F0805F79
:1014A80033D1002301932C4B1A6C42F080521A64FA
:1014B8001B6C03F080530193019B0125284B1B688B
:1014C80013F4807F23D0A368012B34D0052B38D0A8
:1014D800214B1A6F22F001021A671A6F22F00402D8
:1014E8001A67A368002B3DD0FFF73EF806461A4B53
:1014F8001B6F13F0020F46D1FFF736F8801B41F23D
:1015080088339842F3D90320C0E00025D6E7144A6F
:10151800136843F480731360FFF726F80646104BF0
:101528001B6813F4807FCED1FFF71EF8801B0228BA
:10153800F5D90320AAE0084A136F43F001031367A3
:10154800CFE7054B1A6F42F004021A671A6F42F090
:1015580001021A67C5E700BF003802400000474291
:1015680000700040FFF700F806464F4B1B6F13F062
:10157800020F08D0FEF7F8FF801B41F2883398422B
:10158800F3D9032082E0E5B9A369002B7DD0464A50
:10159800926802F00C02082A51D0022B17D0434B54
:1015A80000221A66FEF7E0FF04463F4B1B6813F063
:1015B800007F42D0FEF7D8FF001B0228F5D9032090
:1015C80064E0394A136C23F080531364DCE7374B2B
:1015D80000221A66FEF7C8FF0546334B1B6813F056
:1015E800007F06D0FEF7C0FF401B0228F5D9032074
:1015F8004CE0E369226A1343626A43EA8213A26AEF
:101608005208013A43EA0243E26A43EA0263264A7D
:101618005360264B01221A66FEF7A6FF0446224BAA
:101628001B6813F0007F06D1FEF79EFF001B0228FF
:10163800F5D903202AE0002028E0002026E0012B2D
:1016480026D0194B9B6803F48001E269914221D1AD
:1016580003F03F02216A8A421ED1616A47F6C072CE
:101668001A408A421AD103F44032A16A8A4217D139
:1016780003F07063E26A934214D1002006E001206F
:101688007047012002E0012000E0002002B070BD98
:101698000120FBE70120F9E70120F7E70120F5E742
:1016A8000120F3E70120F1E700380240000047423B
:1016B80008B5254B9B6803F00C03042B3FD0082B7F
:1016C8003FD1214B5A6802F03F025B6813F4800F48
:1016D80012D01D4B5968C1F388111C480023A1FB87
:1016E8000001FEF775FD184B5B68C3F30143013336
:1016F8005B00B0FBF3F025E0134B5968C1F3881C7D
:101708004FEA4C11B1EB0C006EEB0E0E4FEA8E1344
:1017180043EA90638101091A63EB0E03DB0043EA95
:101728005173C90011EB0C0C43F10003990200231B
:101738004FEA8C2041EA9C51FEF74AFDD3E7034863
:1017480000E0034808BD00BF0038024040787D0132
:101758000024F400002800F09B8070B50D46044674
:101768004F4B1B6803F00F038B4208D2CBB24C4A95
:101778001370136803F00F038B4240F08B802368CB
:1017880013F0020F17D013F0040F04D0454A9368E2
:1017980043F4E0539360236813F0080F04D0414AE0
:1017A800936843F4604393603E4A936823F0F003E0
:1017B800A1680B439360236813F0010F32D063686C
:1017C800012B21D09A1E012A25D9364A126812F017
:1017D800020F61D033498A6822F0030213438B60F9
:1017E800FEF7C2FE06462F4B9B6803F00C036268A7
:1017F800B3EB820F16D0FEF7B7FE801B41F2883399
:101808009842F0D9032042E0264A126812F4003FB9
:10181800E0D101203BE0234A126812F0007FD9D1C1
:10182800012034E01E4B1B6803F00F03AB4207D9BD
:10183800EAB21B4B1A701B6803F00F03AB422DD1A1
:10184800236813F0040F06D0164A936823F4E05374
:10185800E1680B439360236813F0080F07D0114A1F
:10186800936823F46043216943EAC1039360FFF757
:101878001FFF0C4B9B68C3F303130B4AD35CD84080
:101888000A4B18600A4B1868FEF724FE002070BD4A
:10189800012070470120FAE70120F8E70120F6E768
:1018A800003C02400038024054550008E00A00207D
:1018B80004000020014B1868704700BFE00A0020B0
:1018C80008B5FFF7F7FF044B9B68C3F38223034A6D
:1018D800D35CD84008BD00BF0038024064550008FA
:1018E80008B5FFF7E7FF044B9B68C3F34233034A8D
:1018F800D35CD84008BD00BF0038024064550008DA
:1019080030B4036A23F001030362036A42688469FE
:1019180024F073040D682C4323F0020C8B6843EA0F
:101928000C03104DA84203D005F58065A84205D1E7
:1019380023F00803CD682B4323F00403094DA84284
:1019480003D005F58065A84205D122F440724D699F
:101958002A438D692A43426084614A68426303626C
:1019680030BC70470000014030B4036A23F4807330
:101978000362036A4268C46924F0730C0C6844EA81
:101988000C0523F400738C6843EA0423114CA0422D
:1019980003D004F58064A04206D123F40063CC6828
:1019A80043EA042323F480630A4CA04203D004F5DD
:1019B8008064A04207D122F440524C6942EA0412E2
:1019C8008C6942EA04124260C5614A68C2630362D4
:1019D80030BC70470000014030B4036A23F48053E0
:1019E8000362036A4468C26922F4E6420D6842EA67
:1019F800052223F400538D6843EA0533094DA842B4
:101A080003D005F58065A84204D124F480444D69CB
:101A180044EA85144460C2614A680264036230BCC7
:101A2800704700BF000001400368304A904212D05E
:101A3800B0F1804F0FD0A2F57C4290420BD002F556
:101A48008062904207D002F58062904203D002F58E
:101A58007842904203D123F070034A681343234A23
:101A680090422AD0B0F1804F27D0A2F57C42904214
:101A780023D002F5806290421FD002F58062904226
:101A88001BD002F57842904217D002F5705290426E
:101A980013D002F5806290420FD002F58062904226
:101AA8000BD0A2F59832904207D002F5806290429E
:101AB80003D002F58062904203D123F44073CA68D0
:101AC800134323F080034A69134303608B68C3629E
:101AD8000B688362054B984203D003F580639842F4
:101AE80001D10B6903630123436170470000014082
:101AF800B0B110B5044690F83D3063B1022384F8C4
:101B08003D30214651F8040BFFF78EFF012384F87E
:101B18003D30002010BD80F83C3000F0DBFFEDE7E1
:101B28000120704730B4036A23F010030362036A8C
:101B38004468826922F4E6420D6842EA052223F0ED
:101B480020038D6843EA0513114DA84203D005F51B
:101B58008065A84206D123F08003CD6843EA0513C7
:101B680023F040030A4DA84203D005F58065A8423A
:101B780007D124F440644D6944EA85048D6944EA38
:101B88008504446082614A688263036230BC70479E
:101B98000000014038B590F83C30012B66D004466F
:101BA8000D46012380F83C30022380F83D300C2A92
:101BB8001AD8DFE802F00719191920191919341968
:101BC800191947000068FFF79BFE2268936943F0E4
:101BD800080393612268936923F0040393612268E0
:101BE800936929690B439361012384F83D300020F0
:101BF80084F83C0038BD0068FFF794FF22689369B9
:101C080043F4006393612268936923F480639361CA
:101C180022689369296943EA01239361E4E700682C
:101C2800FFF7A2FE2268D36943F00803D361226854
:101C3800D36923F00403D3612268D36929690B436C
:101C4800D361D1E70068FFF7C7FE2268D36943F480
:101C58000063D3612268D36923F48063D361226867
:101C6800D369296943EA0123D361BDE70220C1E7AB
:101C780001F01F01012303FA01FC036A23EA0C03A4
:101C88000362036A02FA01F10B4303627047000022
:101C980010B5044601220068FFF7EAFF23680B4AE3
:101CA800934203D002F58062934203D15A6C42F406
:101CB80000425A642268936803F00703062B03D096
:101CC800136843F001031360002010BD00000140B9
:101CD80090F83C30012B3DD010B4012380F83C3003
:101CE800022380F83D3003685A689C6822F0700C23
:101CF8000A6842EA0C025A600368174A93421AD0EB
:101D0800B3F1804F17D0A2F57C42934213D002F56D
:101D1800806293420FD002F5806293420BD002F5A5
:101D28007842934207D002F57052934203D0A2F54D
:101D38009432934204D124F080044A6814439C608E
:101D4800012380F83D30002380F83C3018465DF8C8
:101D5800044B7047022070470000014038B5044624
:101D68000268136923F44053C1680B431361836805
:101D78000269134342691343C2691A430168CB6875
:101D880023F4164323F00C031343CB600268536912
:101D980023F4407381690B435361C369B3F5004F62
:101DA80035D00368604A934200F0918002F5806262
:101DB800934200F08C80FFF783FD0021031849410E
:101DC8001B1841F10001C90041EA5371DB001818E2
:101DD80063684FEA83024FEA937341F10001FEF70B
:101DE800F7F9524DA5FB00325109642303FB110397
:101DF8001B013233A5FB03235B0903F0F00202EB5E
:101E0800011203F00F03216813448B608AE0036812
:101E1800454A93422FD002F5806293422BD0FFF7B8
:101E28004FFD0023021843EB0301121841F1000192
:101E3800C90041EA5271D200101841F100016268EC
:101E480092185B41FEF7C4F9384DA5FB00325109E1
:101E5800642303FB1103DB003233A5FB03235B0977
:101E68005A0002F4F87202EB011203F0070321682A
:101E780013448B6056E0FFF733FD0023021843EB51
:101E88000301121841F10001C90041EA5271D20060
:101E9800101841F10001626892185B41FEF798F949
:101EA800224DA5FB00325109642303FB1103DB001B
:101EB8003233A5FB03235B095A0002F4F87202EBE4
:101EC800011203F00703216813448B602AE0FFF72F
:101ED80007FD0021031849411B1841F10001C90001
:101EE80041EA5371DB00181863684FEA83024FEA2E
:101EF800937341F10001FEF76BF90C4DA5FB00321D
:101F08005109642303FB11031B013233A5FB03238F
:101F18005B0903F0F00202EB011203F00F032168E2
:101F280013448B6038BD00BF001001401F85EB5182
:101F38002DE9F84305460F4616469946DDF82080F8
:101F48002C68246837EA04030CBF4FF0010C4FF0EB
:101F5800000CB4451FD1B8F1FF3FF1D0B8F1000F24
:101F680005D0FEF701FBA0EB09004045E8D92A6837
:101F7800D36823F4D073D3602A68536923F001032C
:101F88005361202385F8393085F83A30002385F8E5
:101F98003830032000E00020BDE8F88358B310B5BE
:101FA800044690F839300BB3242384F8393022687A
:101FB800D36823F40053D3602046FFF7CFFE22688E
:101FC800136923F4904313612268536923F02A03A9
:101FD80053612268D36843F40053D3600020E06360
:101FE800202384F8393084F83A3010BD80F838302E
:101FF80000F008FED8E7012070472DE9F04383B0D0
:102008001E4690F83930DBB2202B56D104460D46D7
:102018009046002955D0002A55D090F83830012B29
:1020280053D0012380F838304FF00009C0F83C90B5
:10203800212380F83930FEF797FA0746A4F8248060
:10204800A4F8268084F8389010E000963B460022D9
:1020580080212046FFF76CFF002838D12B882268A2
:10206800C3F3080353602369CBB90235E38C9BB2F1
:10207800BBB1E28C92B2013A92B2E284A368B3F5A2
:10208800805FE2D000963B46002280212046FFF781
:102098004FFFF0B915F8012B23685A60E6E70135C0
:1020A800E4E700963B46002240212046FFF740FF28
:1020B80088B9202384F8393000E0022003B0BDE855
:1020C800F0830120FAE70120F8E70220F6E7032071
:1020D800F4E70320F2E70320F0E7000010B5044C12
:1020E80000212046FFF7D4FD2046FFF701FD10BD73
:1020F800600F002010B50446FFF7E2FB400004EB38
:102108008404A400B0FBF4F4013C4FF080439C62CB
:1021180010BD0A2800D90A204FF080435863704741
:10212800F8B507460E46154600240BE056F824304D
:102138004FF47070B0FBF3F0FEF71CFA0A20FEF7BC
:1021480019FA0134A54215DD57F824000028EDD00E
:1021580080B2FFF7CFFF0A20FFF7DBFF56F82430E5
:102168004FF47070B0FBF3F0FEF704FA0020FFF7AD
:10217800D0FFE3E7F8BD000084B000220092154BC1
:10218800196B41F080011963196B01F0800100910E
:1021980000990192196B41F001011963196B01F063
:1021A8000101019101990292196B41F0040119632F
:1021B800196B01F004010291029903921A6B42F023
:1021C80002021A631B6B03F002030393039B04B020
:1021D800704700BF0038024008B50B480B4B03603E
:1021E8000B4B436000238360C3604FF4804202615D
:1021F80043618361C3610362FEF762FD00B908BDF4
:1022080000F083FAFBE700BF040B002000540040F5
:10221800A086010030B589B0002303930493059389
:10222800069307930268154B9A4201D009B030BD56
:1022380000250195124C236B43F002032363236BA3
:1022480003F002030193019B4FF44073039312239D
:10225800049301230593032306930423079303A9F7
:102268000848FEF7F9F90295236C43F40013236438
:10227800236C03F400130293029BD7E70054004039
:10228800003802400004024010B582B000238DF8E7
:1022980007300DF107020221E22000F0A5FB68B922
:1022A80000238DF807300DF107020121E22000F02C
:1022B8009BFB044638B9204602B010BD04460448CA
:1022C80000F0ACFBF7E7034800F0A8FBF3E700BF1A
:1022D8006C5500088455000810B582B00446FFF715
:1022E800D3FF08BB8DF807400DF107020321E22058
:1022F80000F07AFBE0B90DF10701E22000F088FB5D
:10230800D0B99DF8073003F07000702845D013F05D
:10231800100116D1A4F1F702072A12D8DFE802F05B
:10232800201111111E1110221E4800F077FBD9E769
:102338001D4800F073FBDEE71C4800F06FFBE0E788
:10234800042013F0200F10D1A4F1F702072A0CD8AB
:10235800DFE802F0190B0B0B170B0A1B0120F0E743
:102368000846EEE70720ECE7052013F0400F15D1EB
:10237800F73C072C12D8DFE804F00E1111110C11EC
:102388000A130220F1E70B20EFE70820EDE706200B
:1023980004E0032002E00C2000E00D2002B010BD94
:1023A8000920FBE798550008AC550008C0550008FF
:1023B80030B595B03022002108A800F0A9FC00240F
:1023C8000394049405940694079401941C4B1A6C86
:1023D80042F080521A641B6C03F080530193019BF6
:1023E8000294184B1A6842F480421A601B6803F47E
:1023F80080430293029B012308934FF4803309938F
:1024080002250E954FF480030F93192310934FF470
:10241800A873119312950423139308A8FEF752FF8B
:102428000F230393049505944FF4A05306934FF498
:1024380080530793052103A8FFF78CF915B030BD29
:10244800003802400070004038B50546142108469F
:1024580000F0B0FA032406E00A4A012306CA285D00
:1024680000F036FA013C002C08DB012CF4D1054AB7
:10247800012306CA3A2000F02BFAEDE700F06CF9C8
:1024880038BD00BF1000002008B5002000F054F946
:102498000021084600F08EFA00F05EF908BD000041
:1024A8002DE9F04F83B00026864B01934FF030336F
:1024B8000093FFF7E9FF844A012306CA834800F026
:1024C80061FA6846FFF7C0FF00F046F9B0463746A4
:1024D800B346B246B14600E02646B9F1000F01D135
:1024E8000025B5E0B8F5616F0AD34FF4616807E0DD
:1024F800F720FFF7F1FE0C284AD00B2865D00646D6
:10250800B8F1000F4FD01920FEF734F80137BAF1AF
:10251800000FEDD1232FEBD108F1FF386C49A1FB57
:102528000831C1F387114FF4167303FB118369480F
:10253800A0FB0320C0F34710C0EB0012A3EB8202FC
:10254800654BA3FB0232C2F3C70201EB810301EB27
:102558004303A8EBC303DBB2C0EB0014A3EB840373
:10256800DBB202EB82046400E4B21B1BDBB2303343
:102578008DF8003030328DF8012030308DF80200AF
:1025880030318DF803106846FFF75EFF0027AFE78C
:102598008642B2D0BAF1000F02D00027BA46ACE7A3
:1025A800CA460027A9E7002430238DF800308DF8AB
:1025B80001308DF802308DF803306846FFF744FF8C
:1025C80034B14FF0000BD9468AE706460124EBE701
:1025D80042494FF4AC7201F5AC60FFF7A1FD4FF032
:1025E800000BD9467CE7BBF1010F15D0BBF1020FF8
:1025F8001BD0BBF1030F53D1052807D90BF10803F2
:102608000DEB0301352301F8083C05244FF416733C
:1026180003FB0488CB4643E000EB800308EB430848
:102628000BF1010B5FFA8BFB3AE0C0EB001308EBF0
:1026380083080BF1010B5FFA8BFB31E00B2C3FF4A5
:102648004BAF0C2C30D01920FDF794FF01352646EE
:10265800032D3FF742AF05F108036B4413F8040C50
:10266800FFF73AFE04468642EDD00A28E6D8B9F1CB
:10267800000FE3D100F130030BF108026A4402F8BD
:10268800083CBBF1000FAED130238DF801308DF836
:1026980002308DF8033080460BF1010B5FFA8BFB9B
:1026A8006846FFF7D1FECEE7B9F1000F05D0BAF1C1
:1026B800000F05D04FF0000AC5E74FF00109C2E747
:1026C800CA46C0E7F7FBFDFE10000020CC55000805
:1026D800B5814E1B89888888CDCCCCCC20000020C1
:1026E80008B5FDF71BFFFFF763FEFFF745FDFFF792
:1026F80073FD00F06DFA00F02DFA00F055F800F0C7
:1027080029FAFFF7EBFCFFF7CBFE704700B587B05F
:102718008DF817000A230293012301930DF1170284
:102728000092002278210348FEF7A8FB07B05DF865
:1027380004FB00BF040B0020002303E0FF21054A2F
:10274800D1540133B3F5806F03D20028F6D1014686
:10275800F5E77047580B002010B584B000241AE044
:10276800A4F15000C0B2FFF7D1FF0020FFF7CEFF61
:102778001020FFF7CBFF6423029380230193084BBB
:1027880003EBC41300930123402278210548FEF788
:1027980075FB0134E4B2072CE2D904B010BD00BFC8
:1027A800580B0020040B002008B56420FDF7E2FE5A
:1027B800AE20FFF7ABFF2020FFF7A8FF1020FFF7A0
:1027C800A5FFB020FFF7A2FFC820FFF79FFF00205A
:1027D800FFF79CFF1020FFF799FF4020FFF796FFB7
:1027E8008120FFF793FFFF20FFF790FFA120FFF75D
:1027F8008DFFA620FFF78AFFA820FFF787FF3F205D
:10280800FFF784FFA420FFF781FFD320FFF77EFFA7
:102818000020FFF77BFFD520FFF778FFF020FFF7B8
:1028280075FFD920FFF772FF2220FFF76FFFDA202C
:10283800FFF76CFF1220FFF769FFDB20FFF766FF49
:102848002020FFF763FF8D20FFF760FF1420FFF7BC
:102858005DFFAF20FFF75AFF0020FFF76DFFFFF77E
:102868007BFF054B0022A3F80024A3F802240120D3
:1028780083F8050408BD00BF580B002010F0800F36
:1028880016D13F2914D8114B93F8043413B1B2FA76
:1028980082F25209012A0CD0CB0800EBC31001F0D8
:1028A800070101238B40094A115C21EA03011154F5
:1028B8007047CB0800EBC31001F0070101238B40E0
:1028C800024A115C19431154704700BF580B00208D
:1028D8002DE9F04782B0814602A800E90600984633
:1028E800274BB3F800349DF8006033447F2B42DC5B
:1028F800234BB3F802349DF801A053443F2B3CDC32
:10290800002523E01E4BB3F80004B3F80214294451
:102918002044B8FA88F25209C9B2C0B2FFF7AEFF34
:102928000134A64211D907FA04F313F4004FE9D091
:10293800134BB3F80004B3F8021429442044424668
:10294800C9B2C0B2FFF79AFFEAE70135AA4508D92C
:10295800A9F1200303FB0A53019A32F813700024EB
:10296800DFE7074BB3F800241644A3F80064484691
:1029780002B0BDE8F0870020FAE70020F8E700BFC2
:10298800580B002030B583B0044602A800E90600C1
:102998001D4600E00134207848B12B4602AA12E90E
:1029A8000600FFF795FF024620788242F2D003B076
:1029B80030BD0000024BA3F80004A3F802147047CE
:1029C800580B002000B585B06423029301230193BE
:1029D80000920A4640EA03010248FEF701FB05B0EF
:1029E8005DF804FB040B002000B585B020F0010061
:1029F800642302930123019300920A460146034887
:102A0800FEF73CFA05B05DF804FB00BF040B00209C
:102A180008B50A460021FFF7D5FF08BD10B50446E2
:102A2800FDF7CEFB4FF47A7382B221460148FFF7D7
:102A3800E4FA10BDA00F002082B0002100910B4BDA
:102A48005A6C42F480425A645A6C02F480420092F2
:102A5800009A01911A6C42F080521A641B6C03F0C0
:102A680080530193019B02B0704700BF00380240B9
:102A78007047FEE7FEE7FEE7FEE7704770477047DE
:102A880008B5FDF765FD08BD0F49D1F8883043F456
:102A98007003C1F888300D4B1A6842F001021A60C1
:102AA800002098601A6822F0847222F480321A603A
:102AB800074A5A601A6822F480221A60D8604FF0D8
:102AC80000638B60704700BF00ED00E000380240F3
:102AD800103000240368B3F1804F00D0704782B0F3
:102AE80000230193054B1A6C42F001021A641B6C17
:102AF80003F001030193019B02B0704700380240C4
:102B080000B587B0002301930293039304930593C0
:102B18000368B3F1804F02D007B05DF804FB0023CF
:102B280000930A4B1A6B42F001021A631B6B03F005
:102B380001030093009B20230193022302930123A6
:102B4800059301A90248FDF787FDE5E70038024033
:102B58000000024000B58BB000230893099301934D
:102B680002930393049305930693079317484FF032
:102B780080420260436083600A22C260036183610D
:102B8800FEF7B6FFC0B900230893099308A90F48B8
:102B9800FFF79EF898B960230193002202920392EE
:102BA800059201A90948FEF7F5FF58B90748FFF74C
:102BB800A7FF0BB05DF804FBFFF7A7FDE3E7FFF7FE
:102BC800A4FDE8E7FFF7A1FDF0E700BF600F0020D4
:102BD80008B50A480A4B03604FF4E1334360002309
:102BE8008360C36003610C2242618361C361FFF7A4
:102BF800D5F900B908BDFFF788FDFBE7A00F002055
:102C08000014014000B589B0002303930493059391
:102C1800069307930268154B9A4202D009B05DF8F3
:102C280004FB0021019103F592335A6C42F0200213
:102C38005A645A6C02F020020192019A02911A6BAE
:102C480042F004021A631B6B03F004030293029B15
:102C5800C0230393022304930323069308230793B3
:102C680003A90348FDF7F8FCD8E700BF00140140AA
:102C780000080240DFF834D0002103E00C4B5B5819
:102C8800435004310B480C4B42189A42F6D30B4A76
:102C980002E0002342F8043B094B9A42F9D3FFF7BC
:102CA800F3FE00F011F8FFF71BFD7047000002204B
:102CB8006C56000800000020E40A0020E40A002006
:102CC800E00F0020FEE7000070B50D4D0D4C641BB1
:102CD800A4100026A64209D10B4D0C4C00F020F898
:102CE800641BA4100026A64205D170BD55F8043B0C
:102CF80098470136EEE755F8043B98470136F2E766
:102D080064560008645600086456000868560008AF
:102D180002440346934200D1704703F8011BF9E7C8
:102D2800F8B500BFF8BC08BC9E467047F8B500BFB0
:082D3800F8BC08BC9E46704780
:102D40000000000000000000000000000000000083
:102D50000000000000000000000000000000000073
:102D60000000000000000000000000000000000063
:102D700000000000E003E003E003E003E003E00301
:102D8000E003E003C003C003C001C001C001C001F3
:102D9000C001000000000000E003E003E0030000C9
:102DA00000000000000000003C1E3C1E3C1E3C1EBB
:102DB0003C1E3C1E3C1E0000000000000000000005
:102DC0000000000000000000000000000000000003
:102DD000000000000000000000000000CE01CE0353
:102DE000DE039E039C039C07FF3FFF7F3807380FDD
:102DF000780F780F780EFFFFFFFFF01EF01CE01C2D
:102E0000E03CE03DE0390000000000000000000070
:102E1000FC03FE0FEE1FE01EE01EE01EE01EE01FA2
:102E2000E00FE007F003FC01FE01FE01FE01FE01E0
:102E3000FE01FE01FE3DFC3FF00FE001E00100005D
:102E400000000000033E07F78FE78EE79EE3BCE338
:102E5000B8E7F8E7F0F7E03FC001FF03FF07F3072B
:102E6000F30FF31EF33CF338F3787FF03FE00000FC
:102E70000000000000000000E007F80F780F781F46
:102E8000781F781F780FF00FE00F801FC37FC3FB00
:102E9000E7F3F7F1F7F0FFF07FF03EF87F7CFF3FBC
:102EA000EF1F00000000000000000000E003E0034E
:102EB000E003E003E003C003C001000000000000E5
:102EC0000000000000000000000000000000000002
:102ED00000000000000000000000000000000000F2
:102EE0003F007C00F001E001C003C00780078007BD
:102EF000800F000F000F000F000F000F000F800F5A
:102F000080078007C007C003E001F0017C003F009C
:102F10000F000000007E001FC007C003E001F001A9
:102F2000F000F000F8007800780078007800780071
:102F30007800F800F000F000F001E001C003C007E5
:102F4000001F007E00780000E003C003C001CE39FE
:102F5000FF3F7F3F20037003F807780F3C1F3806C0
:102F60000000000000000000000000000000000061
:102F70000000000000000000000000000000000051
:102F80000000000000000000C001C001C001C0013D
:102F9000C001C001C001FFFFFFFFC001C001C001AF
:102FA000C001C001C00100000000000000000000DE
:102FB0000000000000000000000000000000000011
:102FC0000000000000000000000000000000000001
:102FD0000000E003E003E003E003E001E001E001C2
:102FE000C00180030000000000000000000000009D
:102FF00000000000000000000000FE3FFE3F000057
:1030000000000000000000000000000000000000C0
:1030100000000000000000000000000000000000B0
:1030200000000000000000000000000000000000A0
:1030300000000000000000000000E003E003E003E7
:10304000E003000000000000000000000F000F007F
:103050001E001E003C003C0078007800F000F000EC
:10306000E001E001C003C00380078007000F000FEC
:10307000001E001E003C003C0078007800F00000BC
:10308000F007F80F7C1F3E3E1E3C1F7C1F7C0F7814
:103090000F780F780F780F780F780F781F7C1F7CD0
:1030A0001E3C3E3E7C1FF80FF007000000000000B1
:1030B00000000000F000F007F03FF03FF001F001E9
:1030C000F001F001F001F001F001F001F001F00178
:1030D000F001F001F001F001F001FF3FFF3F0000BF
:1030E0000000000000000000E00FF83F7C3C3C00C6
:1030F0003E003E003E003C003C007C00F800F00139
:10310000E003C0078007000F001E003E003CFE3FAA
:10311000FE3F00000000000000000000F00FF81F5C
:103120007C1C3E003E003E003C003C00F800F00FDE
:10313000F80F7C003E001E001E001E001E003E0018
:103140007C1CF81FE01F00000000000000000000D1
:103150007800F800F800F801F803F807F807780F8E
:10316000781E781E783C78787878FFFFFFFF78002B
:1031700078007800780078007800000000000000F7
:1031800000000000FC1FFC1FFC1F001E001E001E94
:10319000001E001EE01FF81FFC007C003E003E00E9
:1031A0001E003E003E003C007C1CF81FE01F00009B
:1031B0000000000000000000FC01FE078E0F001F51
:1031C000001E003E003C003CF83DFC3F3E7F1F7E61
:1031D0000F3C0F3C0F3C0F3C0F3E1F1E3E1FFC0FD1
:1031E000F00300000000000000000000FF3FFF3F70
:1031F000FF3F0F001E001E003C0038007800F0006A
:10320000F000E001E001C003C0038007800F800FE1
:10321000000F001F001F0000000000000000000061
:10322000F807FC0F3E1F1E1E1E3E1E3E1E1E3C1FAC
:10323000F80FF007F80FFC1E3E3E1F3C1F7C0F7C72
:103240000F7C1F3C3E3FFC1FF00700000000000009
:1032500000000000F007F80F7C1E3E3C1E3C1F7C67
:103260001F7C1F7C1F7C1F3C3F3EFF1FEF071F0082
:103270001E001E003E003C00F838F03FE01F00003A
:10328000000000000000000000000000000000003E
:1032900000000000E003E003E003E00300000000A2
:1032A00000000000000000000000E003E003E00375
:1032B000E00300000000000000000000000000002B
:1032C0000000000000000000E003E003E003E00372
:1032D0000000000000000000000000000000E0030B
:1032E000E003E003E003E001E001E001C00380034C
:1032F00000000000000000000000000003000F00BC
:103300003F00FC00F003C00F003F00FE003FC00F75
:10331000F003FC003F000F0003000000000000006D
:10332000000000000000000000000000000000009D
:103330000000000000000000FFFFFFFF0000000091
:103340000000FFFFFFFF0000000000000000000081
:10335000000000000000000000000000000000006D
:103360000000000000E000F8007E801FE007F80188
:103370007E001F007E00F801E007801F007E00F83D
:1033800000E000000000000000000000F01FFC3F13
:103390003E381F381F381E001E003C007800F00029
:1033A000E001C003C003C007C00700000000000028
:1033B000C007C007C00700000000000000000000B8
:1033C000F803FE0F1E1F0F3E7F3CFF78EF79C77397
:1033D000C7F38FF38FF38FF39FF39FF3FF73FF7B9D
:1033E000F779003C1C1FFC0FF803000000000000F0
:1033F00000000000000000000000E003E003F00710
:10340000F007F007780F780F7C0E3C1E3C1E3E3C08
:10341000FE3FFF3F1F780F780FF007F007F0000026
:103420000000000000000000000000000000F83F65
:10343000FC3F3E3C1E3C1E3C1E3C3E3C7C3CF03F68
:10344000F83F7E3C1F3C1F3C0F3C0F3C1F3CFE3FA7
:10345000F83F000000000000000000000000000035
:103460000000FF01FF07871F003E003C007C007842
:103470000078007800780078007C007C003E003FF7
:10348000831FFF07FF010000000000000000000094
:10349000000000000000F07FFC7F7E781F781F781E
:1034A0000F780F780F780F780F780F780F780F78E4
:1034B0001F781E787E78F87FE07F00000000000013
:1034C00000000000000000000000FF3FFF3F003E42
:1034D000003E003E003E003E003EFE3FFE3F003EFE
:1034E000003E003E003E003E003EFF3FFF3F00002A
:1034F0000000000000000000000000000000FF1FAE
:10350000FF1F001E001E001E001E001E001EFF1FCB
:10351000FF1F001E001E001E001E001E001E001EBB
:10352000001E00000000000000000000000000007D
:103530000000FE03FF0F871F003E007C007C007828
:1035400000F800F87FF87FF80F780F7C0F7C0F3EB3
:103550008F1FFF0FFE0300000000000000000000AE
:103560000000000000001F7C1F7C1F7C1F7C1F7C54
:103570001F7C1F7C1F7CFF7FFF7F1F7C1F7C1F7CAD
:103580001F7C1F7C1F7C1F7C1F7C00000000000034
:1035900000000000000000000000FF3FFF3FE003CC
:1035A000E003E003E003E003E003E003E003E00303
:1035B000E003E003E003E003E003FF3FFF3F000020
:1035C0000000000000000000000000000000FC1FE0
:1035D000FC1F7C007C007C007C007C007C007C006C
:1035E0007C007C007C007C0078007800F838F03F9C
:1035F000C03F0000000000000000000000000000CC
:1036000000001F3C1E3C3C3C783CF03CE03DE03F71
:10361000C03F803FC03FE03FF03DF03C783C7C3C09
:103620003E3C1F3C0F3C000000000000000000007A
:10363000000000000000003E003E003E003E003E54
:10364000003E003E003E003E003E003E003E003E8A
:10365000003E003E003EFF3FFF3F00000000000034
:10366000000000000000000000001FF81FFC1FFC0D
:103670003FFE3FFE3FFE7FFF77FF77FFF7F7E7F75D
:10368000E7F3E7F3C7F307F007F007F007F00000F0
:1036900000000000000000000000000000000F7C9F
:1036A0000F7C0F7E0F7F0F7F8F7F8F7FCF7FEF7B12
:1036B000EF79FF79FF78FF787F783F783F781F7840
:1036C0001F78000000000000000000000000000063
:1036D0000000F007FC1F3E3E1F7C0F780F780FF8AC
:1036E0000FF80FF80FF80FF80FF80F780F781F7C0E
:1036F0003E3EFC1FF007000000000000000000003C
:10370000000000000000FC3FFF3F1F3E0F3E0F3E49
:103710000F3E0F3E1F3E3F3EFC3FF03F003E003E4F
:10372000003E003E003E003E003E00000000000063
:1037300000000000000000000000F007FC1F3E3EFB
:103740001F7C0F780F780FF80FF80FF80FF80FF8AD
:103750000FF80F780F781F7C3E3EFC1FF8077C00A7
:103760003F000F0003000000000000000000F03FD9
:10377000FC3F7E3C3E3C1E3C1E3C3E3C3C3CFC3CFC
:10378000F03FE03FF03DF83C7C3C3E3C1E3C1F3CA3
:103790000F3C0000000000000000000000000000DE
:1037A0000000FC07FE1F0E3E003C003C003C003EBB
:1037B000C01FF80FFE037F001F000F000F001F2027
:1037C0003E3CFC3FF01F0000000000000000000035
:1037D000000000000000FFFFFFFFE003E003E00344
:1037E000E003E003E003E003E003E003E003E003C1
:1037F000E003E003E003E003E0030000000000005A
:10380000000000000000000000000F7C0F7C0F7C17
:103810000F7C0F7C0F7C0F7C0F7C0F7C0F7C0F7C50
:103820000F7C0F7C1E3C1E3C3E3EFC1FF007000040
:10383000000000000000000000000000000007F091
:1038400007F007F80F780F7C1E3C1E3C1E3E3C1E06
:103850003C1F781F780FF80FF007F007F007E00320
:10386000E003000000000000000000000000000075
:10387000000003E003F003F007F0E7F3E7F3E7F3FA
:10388000E773F77BF77FFF7F7F7F7F7F7E7F7E3FC2
:103890003E3E3E3E3E3E00000000000000000000B4
:1038A00000000000000007F80F7C1E3E3E3E3C1F5B
:1038B000F80FF007E007E003E003F007F80F7C0FD4
:1038C0007C1E3E3C1F780F780FF0000000000000C7
:1038D0000000000000000000000007F807780F7CDF
:1038E0001E3C1E3E3C1F780FF80FF007E003E0037C
:1038F000E003E003E003E003E003E003E003000093
:103900000000000000000000000000000000FF7F39
:10391000FF7F0F001F003E007C00F800F000E00178
:10392000E003C007800F000F001E003E007CFF7FF9
:10393000FF7F00000000000000000000FF0780077C
:10394000800780078007800780078007800780073F
:10395000800780078007800780078007800780072F
:1039600080078007800780078007FF07FF070000A8
:1039700000780078003C003C001E001E000F000F85
:1039800080078007C003C003E001E001F000F00001
:10399000780078003C003C001E001E000F000F0065
:1039A00007000000F07FF000F000F000F000F000F1
:1039B000F000F000F000F000F000F000F000F00087
:1039C000F000F000F000F000F000F000F000F00077
:1039D000F000F07FF07F0000C000C001C001E003F4
:1039E000E003F007F0077807780F380F3C1E3C1E05
:1039F0001E3C1E3C0F380F780778000000000000C6
:103A000000000000000000000000000000000000B6
:103A100000000000000000000000000000000000A6
:103A20000000000000000000000000000000000096
:103A3000000000000000FFFFFFFF0000000000008A
:103A4000F000000000000000000000000000000086
:103A50000000000000000000000000000000000066
:103A60000000000000000000000000000000000056
:103A70000000000000000000000000000000000046
:103A8000F80FFC3F7C3C3E003E003E00FE07FE1F60
:103A90003E3E3E7C3E783E7C7E7CFF3FCF1F00005A
:103AA0000000000000000000003C003C003C003C26
:103AB000003C003CF83DFE3F3E3F1F3E0F3C0F3CAC
:103AC0000F3C0F3C0F3C0F3C1F3C1E3C3E3FFC3F5D
:103AD000F03B0000000000000000000000000000BB
:103AE0000000000000000000FE03FF0F871F003EE3
:103AF000003E003C007C007C007C003C003E003E20
:103B0000871FFF0FFE030000000000000000000000
:103B10001F001F001F001F001F001F00FF07FF1FC7
:103B20003F3E1F3C1F7C1F7C1F7C1F781F781F7C23
:103B30001F7C3F3C7F3EFF1FDF0F000000000000A6
:103B40000000000000000000000000000000000075
:103B5000F803FC0F3E1F1E3E1F3C1F7CFF7FFF7FB4
:103B6000007C007C003C003E071FFF0FFE030000AE
:103B70000000000000000000FF01E103C003C007D7
:103B8000C007C007FF7FFF7FC007C007C007C0078F
:103B9000C007C007C007C007C007C007C007C007ED
:103BA000C00700000000000000000000000000004E
:103BB0000000000000000000EF07FF1F7F3E1F3CD9
:103BC0001F7C1F7C1F781F781F781F7C1F7C3F3C49
:103BD0007F3EFF1FDF0F1E001E001E007C38F83FD7
:103BE000003C003C003C003C003C003CFC3DFE3FF7
:103BF0009E3F1F3F1F3E1F3C1F3C1F3C1F3C1F3C66
:103C00001F3C1F3C1F3C1F3C1F3C000000000000ED
:103C100000000000F001F0010000000000000000C2
:103C2000E07FE07FE001E001E001E001E001E00190
:103C3000E001E001E001E001E001E001E00100005D
:103C40000000000000000000F800F8000000000084
:103C500000000000F83FF83FF800F800F800F80016
:103C6000F800F800F800F800F800F800F800F80094
:103C7000F800F800F800F000F071E07F003C003C34
:103C8000003C003C003C003C1F3C3E3C7C3CF83C83
:103C9000F03DE03DC03FC03FE03FF03DF83C7C3CA4
:103CA0003E3C1F3C1F3C00000000000000000000E4
:103CB000F07FF001F001F001F001F001F001F001FE
:103CC000F001F001F001F001F001F001F001F0016C
:103CD000F001F001F001F001F0010000000000002F
:103CE00000000000000000000000000000000000D4
:103CF0009EF7FFFFFFFFFFFFE7FBE7F9C7F1C7F103
:103D0000C7F1C7F1C7F1C7F1C7F1C7F1C7F10000AB
:103D100000000000000000000000000000000000A3
:103D200000000000FC3DFE3F9E3F1F3F1F3E1F3C2A
:103D30001F3C1F3C1F3C1F3C1F3C1F3C1F3C1F3CAB
:103D40001F3C000000000000000000000000000018
:103D50000000000000000000F007FC1F3E3E1F3C7A
:103D60001F7C0F780F780F780F780F781F7C1F3C1F
:103D70003E3EFC1FF00700000000000000000000B5
:103D8000000000000000000000000000F83DFE3FC1
:103D90003E3F1F3E0F3C0F3C0F3C0F3C0F3C0F3C87
:103DA0001F3C1E3E3E3FFC3FF83F003C003C003CB9
:103DB000003C003C0000000000000000000000008B
:103DC000EE07FE1F7E3E1E3C1E7C1E781E781E786F
:103DD0001E781E781E7C3E7C7E3EFE1FDE0F1E007F
:103DE0001E001E001E001E0000000000000000005B
:103DF000000000007F1FFF1FE71FC71F871F001F56
:103E0000001F001F001F001F001F001F001F001FBA
:103E1000001F000000000000000000000000000083
:103E20000000000000000000FC07FE1F0E1E003E08
:103E3000003E003FE01FFC07FE003E001E001E008B
:103E40003E3CFC3FF01F00000000000000000000AE
:103E5000000000000000800780078007FF7FFF7FD1
:103E6000800780078007800780078007800780071A
:103E700080078007C007FF03FF010000000000006B
:103E80000000000000000000000000000000000032
:103E90001E3C1E3C1E3C1E3C1E3C1E3C1E3C1E3C52
:103EA0001E3C1E3C3E3C7E3CFE3EFE1FDE0F0000E4
:103EB0000000000000000000000000000000000002
:103EC0000000000007F00F780F781E3C1E3C1E3EDD
:103ED0003C1E3C1E780F780FF00FF007F007E00350
:103EE000E0030000000000000000000000000000EF
:103EF000000000000000000003F0E3F1E3F3E7F34B
:103F0000F7F3F7F3F77F777F7F7F7F7F7F7F3E3EFB
:103F10003E3E3E3E3E3E000000000000000000002D
:103F20000000000000000000000000000F7C1E3EAA
:103F30003C3E3C1FF80FF007F007E003F007F807DE
:103F4000F80F7C1E3E3E1F3C1F7800000000000062
:103F50000000000000000000000000000000000061
:103F600007F80F780F7C1E3C1E3C3C1E3C1E3C1F7D
:103F7000780FF80FF007F007E003E003C003C00379
:103F8000C0038007800F007F0000000000000000D9
:103F900000000000FF3FFF3F1F003E007C00F800D4
:103FA000F001E003C007800F001F001E003CFF7FF0
:103FB000FF7F00000000000000000000FE01E003A1
:103FC000C003C003C003C003E001E001E001C00181
:103FD000C003803F803FC003C001E001E001E00179
:103FE000C003C003C003C003E003FE017E00000065
:103FF000C001C001C001C001C001C001C001C001B9
:10400000C001C001C001C001C001C001C001C001A8
:10401000C001C001C001C001C001C001C001C00198
:10402000C0010000C03FE003E001E001E001E00169
:10403000C001C003C003C001E001FE00FE00E001BA
:10404000C001C003C003C001E001E001E001E001E4
:10405000E003C03F003F000000000000000000003F
:104060000000000000000000000000000000073F0A
:10407000C77FE773FFF17EF0000000000000000042
:104080000000000000000000000000000000000030
:104090000000000000000000000000000000000020
:1040A0000000000000000000000000000000000010
:1040B0000000000C000C000C000C000C000C000CAC
:1040C000000C000C000C000C0000000C000C0000A8
:1040D000000000000000001B001B001B001B001B59
:1040E00000000000000000000000000000000000D0
:1040F00000000000000000000000801980198019F5
:104100008019C07FC07F80190033C07FC07F00331B
:104110000033003300330000000000000000001EE8
:10412000003F807580650074003C001E000780051C
:10413000806580658075003F001E0004000400005B
:104140000000007000D840D8C0D880D900730006A5
:10415000000C801BC036C066C046C006800300004D
:10416000000000000000001E003F00330033003359
:10417000001E000CC03CC066806380618063C03E4E
:10418000801C0000000000000000000C000C000C6F
:10419000000C000C00000000000000000000000007
:1041A000000000000000000000000000800000018E
:1041B0000003000600060004000C000C000C000CBC
:1041C000000C000C00040006000600030001800043
:1041D000002000100018000C000C0004000600066F
:1041E00000060006000600060004000C000C001883
:1041F000001000200000000C002D003F001E0033C6
:1042000000000000000000000000000000000000AE
:104210000000000000000000000000000000000C92
:10422000000C000C000CC0FFC0FF000C000C000CC8
:10423000000C000000000000000000000000000072
:10424000000000000000000000000000000000006E
:10425000000000000000000C000C00040004000836
:10426000000000000000000000000000000000004E
:104270000000001E001E0000000000000000000002
:10428000000000000000000000000000000000002E
:104290000000000000000000000000000000000C12
:1042A000000C0000000000000000000300030003F9
:1042B0000006000600060006000C000C000C000CB6
:1042C0000018001800180000000000000000001E88
:1042D000003F0033806180618061806D806D80610E
:1042E000806180610033003F001E0000000000007C
:1042F00000000006000E001E003600260006000624
:104300000006000600060006000600060006000083
:10431000000000000000001E003F8073806180618B
:10432000800100030006000C001800300060807F50
:10433000807F0000000000000000001C003E0063C1
:1043400000630003000E000E000380018001806105
:104350008073003F001E0000000000000000000607
:10436000000E000E001E001E00160036003600660D
:10437000807F807F0006000600060000000000002D
:104380000000007F007F006000600060006E007F22
:1043900080638001800180618073003F001E000007
:1043A000000000000000001E003F803380610060BC
:1043B000006E007F80738061806180618033003F88
:1043C000001E0000000000000000807F807F800150
:1043D0000003000300060006000C000C000C00089F
:1043E0000018001800180000000000000000001E67
:1043F000003F8063806180610021001E003F80617A
:10440000806180618061003F001E000000000000AC
:104410000000001E003F0073806180618061807336
:10442000803F801D800180610073003F001E0000FE
:104430000000000000000000000000000000000C70
:10444000000C000000000000000000000000000C54
:10445000000C000000000000000000000000000050
:1044600000000000000C000C000000000000000034
:104470000000000C000C0004000400080000000014
:104480000000000080008003000E0038006000384B
:10449000000E80038000000000000000000000000B
:1044A00000000000000000000000807F807F00000E
:1044B0000000807F807F00000000000000000000FE
:1044C000000000000000000000000000004000703C
:1044D000001C000780010007001C00700040000065
:1044E00000000000000000000000001F803FC071BD
:1044F000C060C000C00180030007000E000C000C6B
:104500000000000C000C0000000000000000001E75
:10451000003F803180718063806F806D806D806F1F
:10452000806700600032003E001C000000000000B8
:104530000000000E000E001B001B001B001B803142
:104540008031803F803F8031C060C060C06000002B
:10455000000000000000007C007E00630063006338
:104560000063007E007E0063806180618063007F65
:10457000007E0000000000000000001E003F8031AF
:104580008061006000600060006000600060806129
:104590008031003F001E0000000000000000007C91
:1045A000007F0063806380618061806180618061E1
:1045B000806100630063007E007C0000000000005A
:1045C0000000807F807F0060006000600060007FEE
:1045D000007F0060006000600060807F807F0000DE
:1045E000000000000000807F807F006000600060AD
:1045F0000060007F007F006000600060006000607D
:1046000000600000000000000000001E003F80313C
:104610008061006000600060806380638061806111
:104620008031803F001E000000000000000080611B
:1046300080618061806180618061807F807F806136
:104640008061806180618061806100000000000005
:104650000000003F003F000C000C000C000C000CA0
:10466000000C000C000C000C000C003F003F000090
:1046700000000000000080018001800180018001B5
:104680008001800180018001806180618073003F32
:10469000001E0000000000000000C0608061006398
:1046A00000660066006C0078007C006600660063AF
:1046B00080618061C06000000000000000000060B8
:1046C00000600060006000600060006000600060EA
:1046D000006000600060807F807F000000000000BC
:1046E0000000C071C071C07BC07AC06AC06AC06E71
:1046F000C064C060C060C060C060C060C0600000D6
:1047000000000000000080718071807980798079DC
:10471000806D806D806D8065806780678067806355
:1047200080630000000000000000001E003F003316
:104730008061806180618061806180618061806171
:104740000033003F001E0000000000000000007E5B
:10475000007F80638061806180618063007F007E74
:104760000060006000600060006000000000000069
:104770000000001E003F0033806180618061806125
:1047800080618061806580670033803F401E00004B
:10479000000000000000007E007F80638061806177
:1047A0008063007F007E006600630063806180613B
:1047B000C0600000000000000000000E001F8031FB
:1047C000803100300038001E000780038061806166
:1047D0008031003F001E0000000000000000C0FF0C
:1047E000C0FF000C000C000C000C000C000C000CB6
:1047F000000C000C000C000C000C0000000000007D
:104800000000806180618061806180618061806181
:1048100080618061806180618073003F001E0000C4
:10482000000000000000C060C060C06080318031C6
:104830008031001B001B001B001B000E000E000E31
:1048400000040000000000000000C0C0C0C0C0C0E4
:10485000C0C0C0C0C0CC804C804C805E80528052B2
:104860008073806180610000000000000000C0C013
:10487000806080610033003B001E000C000C001EB5
:10488000001F003B80718061C0C00000000000007C
:104890000000C0C08061806100330033001E001E34
:1048A000000C000C000C000C000C000C000C0000B4
:1048B000000000000000803F803F800100030003F3
:1048C0000006000C000C0018001800300060807F0B
:1048D000807F000000000000000F000F000C000CA3
:1048E000000C000C000C000C000C000C000C000C68
:1048F000000C000C000C000C000F000F0000001852
:1049000000180018000C000C000C000C000600063B
:104910000006000600030003000300000000000082
:10492000001E001E00060006000600060006000627
:104930000006000600060006000600060006000647
:10494000001E001E0000000C000C001E00120033B0
:104950000033806180610000000000000000000062
:104960000000000000000000000000000000000047
:104970000000000000000000000000000000000037
:104980000000000000000000E0FF00000000003810
:104990000018000C000000000000000000000000F3
:1049A0000000000000000000000000000000000007
:1049B00000000000000000000000001F803F806138
:1049C0008001801F803F80618063807FC03800004D
:1049D0000000000000000060006000600060006EE9
:1049E000007F807380618061806180618073007F5F
:1049F000006E000000000000000000000000000049
:104A00000000001E003F80738061006000608061D4
:104A10008073003F001E00000000000000008001C5
:104A2000800180018001801D803F807380618061F2
:104A3000806180618073803F801D00000000000065
:104A400000000000000000000000001E003F007396
:104A50008061807F807F00608071003F001E0000C9
:104A6000000000000000C007C00F000C000C807F99
:104A7000807F000C000C000C000C000C000C000CE3
:104A8000000C00000000000000000000000000001A
:104A9000801D803F80738061806180618061807350
:104AA000803F801D80018063007F003E0000006029
:104AB000006000600060006F807F807180618061B5
:104AC0008061806180618061806100000000000081
:104AD00000000006000600000000003E003E000648
:104AE000000600060006000600060006000600009C
:104AF000000000000006000600000000003E003E2E
:104B00000006000600060006000600060006000675
:104B100000060046007E003C00000060006000606F
:104B20000060806100630066006C007C00760063BA
:104B300000638061C0600000000000000000003ED3
:104B4000003E0006000600060006000600060006FD
:104B50000006000600060006000600000000000037
:104B60000000000000000000000080DDC0FFC0CE9B
:104B7000C0CCC0CCC0CCC0CCC0CCC0CCC0CC000061
:104B80000000000000000000000000000000006FB6
:104B9000807F8071806180618061806180618061DF
:104BA0008061000000000000000000000000000024
:104BB0000000001E003F8073806180618061806121
:104BC0008073003F001E0000000000000000000095
:104BD00000000000006E007F807380618061806152
:104BE00080618073007F006E006000600060006084
:104BF0000000000000000000801D803F8073806185
:104C00008061806180618073803F801D80018001B0
:104C1000800180010000000000000000000000672B
:104C2000803F00390030003000300030003000306C
:104C30000030000000000000000000000000000044
:104C40000000001E803F80610060007F803F800187
:104C50008061007F001E00000000000000000000D6
:104C6000000800180018007F007F001800180018C6
:104C7000001800180018801F800F000000000000BE
:104C80000000000000000000000080618061806181
:104C900080618061806180618063807F803D0000F1
:104CA0000000000000000000000000000000C060E4
:104CB000803180318031001B001B001B000E000E74
:104CC00000060000000000000000000000000000DE
:104CD000000080DD80DD80DD005500550055007747
:104CE0000077002200220000000000000000000009
:104CF000000000000000806100330033001E000C43
:104D0000000C001E00330033806100000000000032
:104D100000000000000000008061806180310033ED
:104D20000033001B001B001B000E000E000E001CB9
:104D3000007C007000000000000000000000C07F48
:104D4000C07F800100030006000C00180030C07F07
:104D5000C07F0000000000008003800700060006FE
:104D6000000600060006000E001C001C000E0006D7
:104D70000006000600060006800780030006000605
:104D800000060006000600060006000600060006F3
:104D900000060006000600060006000600060006E3
:104DA0000038003C000C000C000C000C000C000E45
:104DB00000070007000E000C000C000C000C000C9B
:104DC000003C00380000000000000000000000006F
:104DD00000008038807F00470000000000000000D5
:104DE00000000000000000000000000000000000C3
:104DF0000000000000000000000000000010001093
:104E00000010001000100010000000100000000052
:104E1000002800280028000000000000000000001A
:104E20000000000000240024007C00240048007CD6
:104E300000480048000000000038005400500038CE
:104E400000140054005400380010000000200054EA
:104E50000058003000280054001400080000000032
:104E600000100028002800100034004800480034DA
:104E70000000000000100010001000000000000002
:104E800000000000000000000008001000200020CA
:104E9000002000200020002000100008002000104A
:104EA00000080008000800080008000800100020A2
:104EB0000010003800100028000000000000000072
:104EC000000000000000000000100010007C001036
:104ED00000100000000000000000000000000000C2
:104EE0000000000000000010001000100000000092
:104EF000000000000000003800000000000000007A
:104F00000000000000000000000000000000001091
:104F10000000000000080008001000100010001041
:104F2000002000200000000000380044004400542D
:104F3000004400440044003800000000001000302D
:104F400000500010001000100010001000000000C1
:104F50000038004400440004000800100020007CD9
:104F600000000000003800440004001800040004A1
:104F70000044003800000000000800180028002845
:104F80000048007C0008000800000000007C004091
:104F900000400078000400040044003800000000D5
:104FA00000380044004000780044004400440038C9
:104FB00000000000007C0004000800100010002029
:104FC00000200020000000000038004400440038A9
:104FD0000044004400440038000000000038004451
:104FE00000440044003C000400440038000000007D
:104FF0000000000000100000000000000000001091
:105000000000000000000000000000100000000090
:10501000000000100010001000000000000C003024
:1050200000400030000C0000000000000000000004
:105030000000007C0000007C000000000000000078
:10504000000000000060001800040018006000006C
:1050500000000000003800440004000800100010A8
:10506000000000100000000000380044004C005414
:10507000005C0040004000380000000000100028E4
:10508000002800280028007C0044004400000000A4
:105090000078004400440078004400440044007854
:1050A0000000000000380044004000400040004084
:1050B0000044003800000000007000480044004434
:1050C000004400440048007000000000007C0040E4
:1050D0000040007C004000400040007C00000000D8
:1050E000007C00400040007800400040004000404C
:1050F000000000000038004400400040005C004414
:105100000044003800000000004400440044007CDB
:105110000044004400440044000000000038001037
:1051200000100010001000100010003800000000F7
:1051300000040004000400040004000400440038DB
:10514000000000000044004800500060005000488B
:1051500000480044000000000040004000400040C3
:10516000004000400040007C000000000044006C53
:10517000006C00540044004400440044000000005F
:1051800000440064006400540054004C004C00448F
:105190000000000000380044004400440044004483
:1051A000004400380000000000780044004400443F
:1051B000007800400040004000000000003800443B
:1051C000004400440044004400540038000400003F
:1051D000007800440044004400780048004800443F
:1051E00000000000003800440040003000080004C7
:1051F0000044003800000000007C00100010001087
:1052000000100010001000100000000000440044D6
:105210000044004400440044004400380000000002
:10522000004400440044002800280028001000101A
:105230000000000000440044005400540054006C7E
:10524000002800280000000000440028002800106A
:105250000010002800280044000000000044004422
:1052600000280028001000100010001000000000AE
:10527000007C000400080010001000200040007CAA
:1052800000000000001800100010001000100010B6
:105290000010001000100018002000200010001066
:1052A000001000100008000800000000003000108E
:1052B000001000100010001000100010001000304E
:1052C000001000280028004400000000000000003A
:1052D00000000000000000000000000000000000CE
:1052E00000000000000000FE002000100000000090
:1052F00000000000000000000000000000000000AE
:1053000000380044003C0044004C00340000000021
:10531000004000400058006400440044006400580D
:105320000000000000000000003800440040004081
:105330000044003800000000000400040034004C69
:1053400000440044004C0034000000000000000055
:1053500000380044007C0040004400380000000099
:10536000000C0010007C0010001000100010001055
:1053700000000000000000000034004C0044004425
:10538000004C0034000400780040004000580064E5
:1053900000440044004400440000000000100000ED
:1053A000007000100010001000100010000000003D
:1053B000001000000070001000100010001000101D
:1053C000001000E000400040004800500060005025
:1053D00000480044000000000070001000100010A1
:1053E000001000100010001000000000000000007D
:1053F0000078005400540054005400540000000091
:1054000000000000005800640044004400440044D0
:105410000000000000000000003800440044004488
:105420000044003800000000000000000058006444
:1054300000440044006400580040004000000000A8
:105440000034004C00440044004C003400040004CC
:105450000000000000580064004000400040004090
:105460000000000000000000003800440030000888
:1054700000440038000000000020002000780020D8
:1054800000200020002000180000000000000000A4
:105490000044004400440044004C0034000000007C
:1054A00000000000004400440028002800280010EC
:1054B0000000000000000000005400540054006C84
:1054C0000028002800000000000000000044002820
:1054D0000010001000280044000000000000000040
:1054E0000044004400280028001000100010006054
:1054F00000000000007C0008001000200040007C3C
:105500000000000000180010001000100020002013
:105510000010001000100018001000100010001003
:1055200000100010001000100010001000300010DB
:1055300000100010000800080010001000100030DB
:105540000000000000000074004C0000000000009B
:105550000000000000000000000000000102030441
:105560000607080900000000010203044572726F7B
:105570007220777269746520706F6C6172697479DA
:105580000A0000004572726F72207772697465209C
:105590006F75747075740A004572726F722077723D
:1055A00069746520696E69740A0000004572726F43
:1055B0007220777269746520636F6E6669670A008E
:1055C00052656164206572726F720A0054696D657C
:1055D000723A20004B4220746573742073746172B8
:1055E000740A000046726F6D20626F74746F6D20D4
:1055F000746F20746F700000526967687420707255
:1056000065737365640A000043656E74657220708B
:105610007265737365640A004C6566742070726508
:10562000737365640A000000526F7720636F6D70BA
:105630006C6574650A0000004B4220746573742029
:10564000636F6D706C6574650A0000003030303037
:0C565000303030303030303000000000CE
:08565C00ACABFF7F0100000070
:04566400AD0100088C
:0456680089010008AC
:10566C000100000010000000101A0000402D00087E
:10567C000B1200008C400008070A0000E84D0008DF
:10568C0010000000100000000800000006000000E0
:10569C0020000000080000000800000008000000C6
:1056AC0010000000100000001000000010000000AE
:1056BC0010000000080000000600000020000000A0
:1056CC0008000000080000000800000010000000A6
:1056DC00100000001000000010000000100000007E
:1056EC000800000006000000200000000800000078
:1056FC00080000000800000010000000100000006E
:10570C001000000010000000100000000800000055
:10571C000600000020000000080000000800000047
:10572C000800000010000000100000001000000035
:10573C00100000001000000008000000060000002F
:10574C002000000008000000080000000800000015
:10575C0010000000100000001000000010000000FD
:10576C0010000000080000000600000020000000EF
:10577C0008000000080000000800000010000000F5
:10578C0010000000100000001000000010000000CD
:10579C0008000000060000002000000008000000C7
:1057AC0008000000080000001000000010000000BD
:1057BC0010000000100000001000000008000000A5
:1057CC000600000020000000080000000800000097
:1057DC000800000010000000100000001000000085
:1057EC00100000001000000008000000060000007F
:1057FC002000000008000000080000000800000065
:10580C00100000001000000010000000100000004C
:10581C00100000000800000006000000200000003E
:10582C000800000008000000080000001000000044
:10583C00100000001000000010000000100000001C
:10584C000800000006000000200000000800000016
:10585C00080000000800000010000000100000000C
:10586C0010000000100000001000000008000000F4
:10587C0006000000200000000800000008000000E6
:10588C0008000000100000001000000010000000D4
:10589C0010000000100000000800000006000000CE
:1058AC0020000000080000000800000008000000B4
:1058BC00100000001000000010000000100000009C
:1058CC00100000000800000006000000200000008E
:1058DC000800000008000000080000001000000094
:1058EC00100000001000000010000000100000006C
:1058FC000800000006000000200000000800000066
:10590C00080000000800000010000000100000005B
:10591C001000000010000000100000000800000043
:10592C000600000020000000080000000800000035
:10593C000800000010000000100000001000000023
:10594C000800000010000000080000000800000023
:10595C000800000008000000040000001000000017
:10596C000800000010000000080000000800000003
:10597C0008000000100000001000000010000000E3
:10598C0010000000100000000800000008000000DB
:10599C0010000000080000000800000008000000D3
:1059AC0008000000080000000800000008000000CB
:1059BC0008000000100000001000000010000000A3
:1059CC0002000000080000001000000008000000A9
:1059DC00080000000800000008000000040000009F
:1059EC00100000000800000010000000080000007B
:1059FC00080000000800000008000000080000007B
:105A0C00100000000800000010000000080000005A
:105A1C00080000000800000008000000080000005A
:105A2C000800000008000000100000000800000042
:105A3C000F00000008000000080000000200000039
:105A4C000300000010000000100000001000000017
:105A5C0010000000100000001000000010000000FA
:105A6C0010000000100000001000000010000000EA
:105A7C0010000000080000000200000010000000F0
:105A8C0008000000100000000800000010000000DA
:105A9C0010000000100000001000000010000000BA
:105AAC0010000000080000000800000008000000C2
:105ABC0008000000080000000800000010000000B2
